:020000040800F2
:1000000030F80020B5020008472B0008312800080E
:10001000132B0008C90A0008FD2F0008000000008B
:100020000000000000000000000000001D020008A9
:10003000690B00080000000061020008E12C0008C4
:10004000CF020008492B0008CF020008CF020008A9
:10005000CF020008CF0200086D0B0008DD0B00087E
:10006000CF020008CF020008CF020008CF0200082C
:10007000CF020008CD0A0008CF020008CF02000816
:10008000CF020008CF020008CF020008CF0200080C
:10009000CF020008CF020008CF020008CF020008FC
:1000A000CF020008CF020008CF020008CF020008EC
:1000B000CF020008CF020008CF020008CF020008DC
:1000C000CF020008CF020008CF020008CF020008CC
:1000D000CF020008CD2F0008CF020008CF02000891
:1000E000CF020008CF020008CF020008CF020008AC
:1000F000CF020008CF020008CF020008CF0200089C
:10010000CF020008CF020008CF020008CF0200088B
:10011000CF020008CF020008CF020008CF0200087B
:10012000CF020008CF020008CF020008CF0200086B
:1001300000F002F800F062F80AA090E8000C824497
:100140008344AAF10107DA4501D100F057F8AFF274
:10015000090EBAE80F0013F0010F18BFFB1A43F0A5
:100160000103184730B4040050B404000A444FF0AF
:10017000000C10F8013B13F0070408BF10F8014B06
:100180001D1108BF10F8015B641E05D010F8016B4B
:10019000641E01F8016BF9D113F0080F1EBF10F8AF
:1001A000014BAD1C0C1B09D16D1E58BF01F801CBD2
:1001B000FAD505E014F8016B01F8016B6D1EF9D555
:1001C0009142D6D37047000000230024002500266A
:1001D000103A28BF78C1FBD8520728BF30C148BFAA
:1001E0000B607047642900F07B81732900F08883DD
:1001F000002070471FB51FBD10B510BD00F09AFB61
:100200001146FFF7F7FF1FF065FE00F0B8FB03B4DF
:10021000FFF7F2FF03BC04F06DFD0000224B1968EC
:100220000868B0E8F00F80F30988BFF36F8F4FF0D4
:10023000000080F311884EF00D0E704700000000A2
:1002400006480068006880F3088862B661B6BFF3AC
:100250004F8FBFF36F8F00DF00BF00BF08ED00E0DE
:10026000EFF30980BFF36F8F0F4B1A6820E9F00F8F
:10027000106008B54FF0500080F31188BFF34F8F26
:10028000BFF36F8F25F02EFB4FF0000080F3118835
:10029000BDE8084019680868B0E8F00F80F30988E5
:1002A000BFF36F8F704700BF90000020EFF3058011
:1002B000704700000948804709480047FEE7FEE70D
:1002C000FEE7FEE7FEE7FEE7FEE7FEE7FEE7FEE706
:1002D00004480549054A064B70470000F92C000800
:1002E0003101000830F2002030F8002030F4002006
:1002F00030F40020704753EA020C00F069802DE9C9
:10030000F04B4FF00006002B1FBFB3FA83F503FA42
:1003100005F424FA05F65E4012BF1643B2FA82F5E0
:1003200002FA05F4C5F120051EBF22FA05FC44EAD5
:100330000C04203556EA044C4FEA144418BF641CE0
:100340004FF000084FF00009904271EB030C39D3D5
:10035000002919BFB1FA81F701FA07F6B0FA80F760
:1003600000FA07F6C7F120071EBF20FA07FC46EA8D
:100370000C062037B6FBF4FCA7EB0507103F07F08F
:100380001F0BCBF120060CFA0BFB2CFA06F644BF30
:10039000B3460026202FA4BF5E464FF0000B5BEA59
:1003A000060C08BF4FF0010B19EB0B09ABFB027CED
:1003B00048EB0608C01B06FB02CC0BFB03CC71EB21
:1003C0000C01C1E70B46024641464846BDE8F08BAA
:1003D00013B54FF000004FF00001AFF30080BDE80F
:1003E0001C407047B2F120030AD5C2F1200320FA65
:1003F00002F001FA03F321FA02F140EA0300704728
:1004000021FA03F04FF00001704700000FB40449D7
:1004100010B503AA029800F077FA10BC5DF814FB3F
:10042000740000202DE9F0410E46044600202062B1
:100430002046E168884730B3252805D0D4E901215A
:100440009047206A401CF2E7E16820460027884771
:10045000050018D0A5F14100192802D820354FF425
:1004600000673246294620462760FFF7BBFE40B1B1
:10047000012804D0F61D26F007060836D8E7361DF9
:10048000D6E72846DAE7206ABDE8F08170B50C4669
:100490000546012A05D02878800600D5EA690023A0
:1004A00002E0012305E05B1C934202D2E05C0028DD
:1004B000F9D1A869E618C01AA861286A1844286208
:1004C0002846AFF3008004E0D5E9012114F8010BC0
:1004D0009047B442F8D32846AFF3008070BD0000C7
:1004E0002DE9F0410646002410687529314616A50D
:1004F00010D0AFF30080002802DA404213A507E0D5
:1005000031688A0701D512A502E0490704D511A573
:10051000012401E0AFF3008000210A2206F1240744
:1005200009E0B0FBF2FCB0FBF2F302FB1C00303040
:1005300078541846491C0028F3D123462A463046F1
:10054000BDE8F04100F058B9000000002D000000A7
:100550002B0000002000000040EA0103024630B5F5
:100560009B0710D14FF0013400E008C208C91D1BE1
:100570009D4315EAC41FF8D013F0FF0102F8011BD8
:100580000DD01B0AF8E711F8013B002B02F8013BE4
:1005900005D011F8013B002B02F8013BF3D130BD2F
:1005A00010B5431C02E010F8011B71B18107FAD1AC
:1005B0004FF0013202C88C1A8C4314EAC211F9D0F0
:1005C000C01A0A0603D0C01E10BDC01A10BD0A040E
:1005D00001D0801E10BD0902FCD0401E10BD032AB0
:1005E00040F2308010F0030C00F0158011F8013B50
:1005F000BCF1020F624498BF11F801CB00F8013B37
:1006000038BF11F8013BA2F1040298BF00F801CBFA
:1006100038BF00F8013B11F0030300F02580083AD1
:10062000C0F0088051F8043B083A51F804CBA0E828
:100630000810F5E7121D5CBF51F8043B40F8043B7D
:10064000AFF30080D20724BF11F8013B11F801CBB2
:1006500048BF11F8012B24BF00F8013B00F801CB83
:1006600048BF00F8012B704710B5203AC0F00B804E
:10067000B1E81850203AA0E81850B1E81850A0E8A6
:100680001850BFF4F5AF5FEA027C24BFB1E8185000
:10069000A0E8185044BF18C918C0BDE810405FEA70
:1006A000827C24BF51F8043B40F8043B08BF7047EC
:1006B000D20728BF31F8023B48BF11F8012B28BFF1
:1006C00020F8023B48BF00F8012B704702F0FF03FF
:1006D00043EA032242EA024200F002B84FF000026D
:1006E0000429C0F0128010F0030C00F01B80CCF144
:1006F000040CBCF1020F18BF00F8012BA8BF20F8B2
:10070000022BA1EB0C0100F00DB85FEAC17C24BF05
:1007100000F8012B00F8012B48BF00F8012B7047AF
:100720004FF0000200B5134694469646203922BF8A
:10073000A0E80C50A0E80C50B1F12001BFF4F7AFD5
:10074000090728BFA0E80C5048BF0CC05DF804EBB7
:10075000890028BF40F8042B08BF704748BF20F825
:10076000022B11F0804F18BF00F8012B70470000DA
:100770004FF0013C50F8042B51F8043B9A4221D130
:10078000A2EB0C03934313EACC1317D150F8042BBC
:1007900051F8043B9A4215D1A2EB0C03934313EAA0
:1007A000CC130BD150F8042B51F8043B9A4209D1D9
:1007B000A2EB0C03934313EACC13DBD04FF0000001
:1007C000704700BFD01A01BAB1FA81F101F01801E7
:1007D00022FA01F0CB40C1F12001DBB2C0B2C01A55
:1007E0002CFA01F3D11A914311EAC311E6D17047F3
:1007F00070477047704770472DE9F0470D4699469E
:100800009246044600F124080168880604D5E06990
:1008100021F01001216000E00120A84201DD471B0A
:1008200000E00027A1697A1902EB0900081AA0610B
:100830002078C00602D42046AFF30080002608E0EE
:10084000D4E901211AF806009047206A401C761C62
:1008500020624E45F4DB2078C0060AD52046AFF36F
:10086000008006E0D4E9012130209047206A401C36
:100870002062381EA7F10107F4DC07E0D4E901216A
:1008800018F805009047206A401C2062281EA5F138
:100890000105F3DC2046AFF300802078000602D586
:1008A0000220BDE8F0870120FBE7000001694A1C37
:1008B00002610878704700B58FB0CDE901310021A1
:1008C000059105497944CDE9031011466846FFF7C3
:1008D000A9FD0FB000BD0000E5FFFFFF10B54369A3
:1008E00013B1AFF3008001E0FFF7D0FD012010BD90
:1008F000127800F124010A7000224A700122EDE70B
:1009000011684FF0FF32E9E7074B70B50D467B44A5
:10091000FFF7D1FF0446284600F008F810B14FF069
:10092000FF3070BD204670BDDBCB0000007B00F0C7
:1009300080007047754600F02BF8AE46050069460A
:10094000534620F00700854618B020B5FFF7C0FCDD
:10095000BDE820404FF000064FF000074FF00008C0
:100960004FF0000B21F00701AC46ACE8C009ACE841
:10097000C009ACE8C009ACE8C0098D46704710B5A5
:100980000446AFF300802046BDE81040FFF73FBCAF
:1009900000487047CCF1002070B50446206881689B
:1009A000C943C9071BD1816821F00101816000F0B2
:1009B000FBFE05460EE000F0F7FE401B022809D9B9
:1009C000A06A40F01000A062E06A40F00100E0621E
:1009D000012070BD20688068C043C007EBD00020B4
:1009E00070BD10B50146486A826A12F0500F05D0FA
:1009F000006A026BBDE8104008461047816A41F466
:100A00000071816201688968C1F3424107290CD1F4
:100A1000017B51B9816A21F480718162816AC904C4
:100A200003D4816A41F00101816200F07FFA10BDB8
:100A300010B5406A816A41F040018162C16A41F0AB
:100A40000401C16200F074FA10BD10B5406A00F0F4
:100A50006EFA10BDF8B5044600260096206881683D
:100A6000C943C9072AD0816841F001018160144857
:100A700014490068B0FBF1F0009002E00098401EBD
:100A8000009000980028F9D100F08EFE054610E095
:100A900000F08AFE401B02280BD9A06A40F010002B
:100AA000A062E06A40F00100E06284F82460012066
:100AB000F8BD20688068C043C007E9D10020F8BDB8
:100AC0000000002040420F00FEE7000010B516486D
:100AD000164B164A0168803B914204D914480068BD
:100AE00000F4007002E0186800F4007000281AD0CA
:100AF0004FF48070914203D90D49091D086000E050
:100B0000586009485838006881688907FCD506484C
:100B1000583801F0A5FA0748016841F48061016086
:100B200005490120087010BD9C050020800002408E
:100B300000040240100801408C00002030B590F8FD
:100B400040500124AC40C56B6C600468636043682E
:100B5000102B04D0036899600068C26030BD036840
:100B60009A600068C16030BD704700002DE9F04711
:100B7000174F3868C00729D000F016FE154D696878
:100B8000441A4FF001088C2C1ED94FF0000985F84B
:100B900000906878401C6870687864280ED305F16E
:100BA0000C06708926F094FC0B4926F0A5FC26F073
:100BB00057FC31690844306185F80190AC60686881
:100BC0002044686085F80080C7F80080BDE8F087A1
:100BD00014040140E0020020CDCCCC3D2DE9F041D1
:100BE0000F4F3868800719D500F0DEFD0D4D69689C
:100BF000441A282C10D900262E7004210A4800F02F
:100C0000C5FD0121012801D06E7000E06970AC6063
:100C1000686820446860297002203860BDE8F0816F
:100C200014040140D40200200010014006490020B5
:100C3000C8610648016941F004010161016941F0A0
:100C40004001016170470000B00400200020024014
:100C5000064A0021D16106490A6942F002020A618E
:100C60004861086940F0400008617047B004002006
:100C700000200240044B0022DA61044A136943F069
:100C80000103136101807047B0040020002002407E
:100C900000201449CA68D306134A04D5D06940F02D
:100CA0000200D0611020CB685B0705D5D36943F003
:100CB0000103D36140F00400CB69DB0707D0D3699F
:100CC00043F00403D361CA6922F00102CA61A0F5AE
:100CD0008072013A01D0C8607047C86920F00100F5
:100CE000C861704700200240B004002070B504467F
:100CF00000F05AFD0546114E09E0601C07D024B1F2
:100D000000F052FD401BA04201D9032070BDF068E5
:100D1000C007F2D1F068800601D52020F060F068AD
:100D2000C00605D4F069C00702D1F068400703D5BA
:100D3000FFF7AEFF012070BD002070BD0020024013
:100D4000F8B504460026009694F82400012809D03E
:100D5000012084F824002046FFF71EFE07463800D5
:100D600002D058E00220F8BDA06A20F4885040F07C
:100D70000200A062022000F0A9FD29490968B1FB28
:100D8000F0F04000009002E00098401E00900098B3
:100D90000028F9D12046FFF75DFE2068816841F008
:100DA0000801816000F000FD05460EE000F0FCFC4B
:100DB000401B0A2809D9A06A20F0020040F0100068
:100DC000A06284F824600120F8BD206880680007D4
:100DD000ECD42068816841F00401816000F0E4FCFB
:100DE00005460EE000F0E0FC401B0A2809D9A06A85
:100DF00020F0020040F01000A06284F8246001207E
:100E0000F8BD206880684007ECD4A06A20F002009A
:100E100040F00100A06284F824603846F8BD00006C
:100E200000000020F8B500230025009590F824204C
:100E3000012A12D0012280F824204A681F26072A9E
:100E40000DD20468676B521E02EB82029640B743D4
:100E50000E689640374367631AE00220F8BD0D2AFA
:100E60000BD20468276BD21F02EB82029640B74375
:100E70000E689640374327630AE00468E76A0D3A34
:100E800002EB82029640B7430E6896403743E76212
:100E90000A6807260A2A0BD30468E7680A3A02EBB5
:100EA00042029640B7438E6896403743E76009E0B8
:100EB0000468276902EB42029640B7438E68964069
:100EC000374327610A68102A01D0112A23D1144C14
:100ED0000268A2421AD1946824021CD4946844F493
:100EE000000494600968102915D10E490E4A09685A
:100EF000B1FBF2F101EB81014900009102E00099A0
:100F0000491E009100990029F9D104E0816A41F05D
:100F100020018162012380F824501846F8BD0000AA
:100F2000002401400000002040420F00704770473D
:100F3000704700002DE9F04104460025002C03D045
:100F4000A06A002618B108E00120BDE8F081E66241
:100F500084F82460204600F07FF82046FFF71CFD4F
:100F6000A16AC90600D428B1A06A40F01000A062AE
:100F70000120EAE7A16A21F4885141F00201A1624F
:100F8000324923688B4206D1E169B1F5402F03D184
:100F90004FF4002100E0E169277B41EA47026168E4
:100FA0000A43A1684FF4807C614508D0012906D02E
:100FB000002194F81480B8F1010F02D00AE06146D4
:100FC000F7E7C7B1A76A47F02007A762E76A47F0CB
:100FD0000107E7625F6827F469470F435F60216894
:100FE0008B681B4F3B4013438B60A168614509D060
:100FF000012907D009E0A7697F1E41EA473141F482
:101000000061E7E7218A491E0D052168CB6A23F4B8
:1010100070032B43CB62216889680E4B19409142C3
:1010200007D1E662A16A21F0020141F00101A1624B
:101030008BE7A06A20F0020040F01000A062E06A96
:1010400040F00100E06201207FE70000003C014029
:10105000FDF7E1FFFE0E1FFF704700002DE9F0478E
:10106000044689469246DFF8008120683F4F08F128
:101070000406404501D0B84207D1306810F4702F03
:1010800003D001252846BDE8F08794F82400012804
:101090000BD0012084F824002046FFF7DBFC054636
:1010A000002125B184F82410ECE70220EBE7A06AC8
:1010B00040F60162904340F48070A0622068B8421C
:1010C00018D1326812F4702F14D0A26A42F4801240
:1010D000A2623068400505D5A06A20F4005040F4B3
:1010E0008050A062A06AC00412D5E06A20F0060019
:1010F000E0620EE0A26A22F48012A262406840051B
:10110000F0D5A06A20F4005040F48050A062E9E7D6
:10111000E16284F82410216A15488862216A154822
:10112000C862216A1448086321686FF002000860F1
:101130002068816841F480718160216853464C3198
:101140004A46206A00F026F920688168C1F34241CE
:10115000072904D0816841F48011816092E7816899
:1011600041F4A00181608DE7002401400028014086
:10117000E30900084B0A0008310A000810B590F88E
:1011800021100022022905D00421816380F820204B
:10119000012010BD01680B6823F00E030B6001688D
:1011A0000B6823F001030B6090F84030C46B012101
:1011B00001FA03F3636080F8211080F820201046C4
:1011C00010BD00002DE9F05F002590F821100229E4
:1011D00003D004218163012595E001680A6822F0AB
:1011E0000E020A6001680A6822F001020A60474E96
:1011F000464FB215DFF814C1DFF81081DFF80C910B
:10120000DFF808A1DFF804B10168783F1301140288
:10121000ACF1640CA8F15008A9F13C09AAF1280A24
:10122000ABF1140B4FF4801EB1422FD9B94201D15A
:10123000012227E0614501D1102223E0414521D060
:10124000494501D11A461DE0514501D1224619E018
:10125000594501D1724615E02D4EB14201D101220E
:1012600010E02B4E1436B14201D110220AE0284E74
:101270002836B14206D0264A3C32914201D11A4664
:1012800000E022462249091F0A6033E0B94201D139
:1012900001222CE0614501D1102228E0414526D0F1
:1012A000494501D11A4622E0514501D122461EE0AE
:1012B000594501D172461AE0B14202D14FF0807215
:1012C00015E0134EB14201D1012210E0104E143648
:1012D000B14201D110220AE00D4E2836B14206D0AB
:1012E0000B4A3C32914201D11A4600E0224607499E
:1012F00080394A60012180F82110002180F82010F7
:10130000416B01B188472846BDE8F09F800002404C
:101310000804024030B500280DD01B4B0168142290
:1013200099420AD2194B0B44B3FBF2F292000264C9
:10133000174AC2630BE0012030BD134B5B420B44E4
:10134000B3FBF2F2920002640F4A083AC26302222F
:10135000001D42770A6843F6F0739A43D0E90034DF
:101360002343D0E902452C432343046923434469C2
:1013700023438469234313430B600021416301220B
:1013800042770177002030BD08040240F8FFFDBF1E
:101390000000024070B50446002594F820000128A2
:1013A0000CD0012084F8200094F821600020012E48
:1013B00006D084F820000225284670BD022070BDAA
:1013C000022684F82160A0632068066826F00106E2
:1013D00006602046FFF7B2FBE06A28B1206801688A
:1013E00041F00E01016009E02068016821F004016C
:1013F00001602068016841F00A010160206801680D
:1014000041F001010160D7E72DE9F04705460F469D
:101410004FF0010ADFF8908098F8180001280DD0ED
:10142000012088F818002868204E4CF25039022814
:1014300007D04846FFF75AFC98B12FE00220BDE8DC
:10144000F0874846FFF752FCF8B90120FFF7EEFBA2
:101450004846FFF74BFC8246306920F004003061BB
:101460001CE04FF0FF303860AC6811E02046FFF719
:10147000EFFB4846FFF73AFC8246306920F0020055
:1014800030615FEA0A0001D03C6007E004F50064C7
:10149000D5E9020100EBC120A042E7D8002088F87E
:1014A00018005046CBE70000B004002000200240A6
:1014B0000348016941F0800101610020704700008C
:1014C000002002402DE9F05F0746884615461E467B
:1014D0000024DFF8749099F81800012809D0012041
:1014E00089F818004CF2503B5846FFF7FFFB18B143
:1014F00026E00220BDE8F09F012F05D0022F05D085
:101500000427DFF848A019E00127FAE70227F8E7E7
:10151000220128463146FEF765FF81B208EB440000
:10152000FFF7A8FB5846FFF7E1FBDAF8101021F0AF
:101530000101CAF8101018B9641CE4B2BC42E7D328
:10154000002189F81810D5E7B004002000200240DF
:10155000002006490A69120607D5054A4A60054A6D
:101560004A600969090600D5012070470020024041
:1015700023016745AB89EFCD2DE9F84F0024002307
:10158000DFF8E0914FF00F0809F1040A0AF1040BAB
:101590000BF1040EDFE00127A7403A40BA4275D1B3
:1015A000DFF8C4C14D68A5EB0C0665452BD00DDCFA
:1015B000032D34D005DC35B3012D19D0022D2FD1E8
:1015C0001BE0112D16D0122D2AD119E0B6F5881F77
:1015D00019D006DCB6F5803F15D0B6F5801F1FD1B7
:1015E00011E0B6F5001F0ED0B6F5041F18D10AE0C1
:1015F000CB6815E0CB681B1D12E0CB6808330FE009
:10160000CB680C330CE08B6823B1012B04D008238A
:10161000476105E0042303E00823076100E000239D
:10162000FF2A01D8054601E000F1040502D84FEA7F
:10163000840603E0A4F108064FEA86062F6808FA3C
:1016400006FC27EA0C0703FA06F647EA06072F60AE
:101650004D68ED007ED5454DAE6946F00106AE61A0
:10166000AD6905F001050095414D24F00306771999
:10167000BE68A5072D0F08FA05FC26EA0C06DFF860
:10168000F4C0604503D14FF0000C25E062E0DFF8C4
:10169000E8C0604502D14FF0010C1DE0DFF8DCC06E
:1016A000604502D14FF0020C16E0DFF8D4C060456F
:1016B00002D14FF0030C0FE0DFF8C8C0604502D143
:1016C0004FF0040C08E0DFF8C0C0604502D14FF0D5
:1016D000050C01E04FF0060C0CFA05FC4CEA060C78
:1016E000C7F808C04D68ED0305D5D9F8005015437B
:1016F000C9F8005004E0D9F800509543C9F80050EB
:101700004D68AD0305D5DAF800501543CAF800500E
:1017100004E0DAF800509543CAF800504D68ED0235
:1017200005D5DBF800501543CBF8005004E0DBF89A
:1017300000509543CBF800504D68AD0205D5DEF85A
:1017400000501543CEF8005004E0DEF800509543F9
:10175000CEF80050641C0A6832FA04F57FF41BAF1F
:10176000BDE8F88F00040140000011100010024095
:101770000000014000080140000C01400010014041
:101780000014014000180140001C0140806808421C
:1017900001D00120704700207047002A01D001616C
:1017A0007047090401617047014880687047000074
:1017B00078000020024881680278114481607047F7
:1017C0007800002010B50748016841F01001016061
:1017D000032000F059F80F2000F006F800F026F87A
:1017E000002010BD0020024070B504460D4D4FF49E
:1017F0007A712878B1FBF0F00B490968B1FBF0F081
:1018000000F01AFE08B1012070BD102C07D2002292
:101810002146501E00F018F86C60002070BD0120B9
:1018200070BD0000780000200000002070470028F4
:1018300009DB00F01F02012191404009800000F106
:10184000E020C0F800117047F0B40D460D4B1B6846
:10185000C3F30223C3F10704042C00D90424191D87
:10186000072901D2002300E0DB1E012606FA04F15D
:10187000491E294099409E40761E16403143F0BCD7
:1018800001F0BDBB0CED00E000F00701054A106857
:101890004FF6FF03184040EA012003490843106057
:1018A000704700000CED00E00000FA0570470000F2
:1018B00010B5054C2068C00304D5FFF7F7FF4FF4BF
:1018C0008030206010BD00001404014010B586B0C7
:1018D000014632A090E81C00C068CDE903340292B2
:1018E000059032A0006801900020314C042931D0CD
:1018F0000EDC012938D0022908D100F0A5F9616871
:10190000C1F38131491C4900B0FBF1F006B010BDB4
:10191000082924D01029F9D161682268D201F5D5AF
:1019200002A8C1F38342805CC90309D5616801AA9A
:10193000C1F34041515C1F4AB2FBF1F1484301E061
:101940001D49484361684902E0D440000321B0FBCF
:10195000F1F0DBE706B0BDE8104000F085B906B055
:10196000BDE8104000F080B9216AC1F30122012ACC
:1019700003D1890701D5D003C8E7022A05D1616ADE
:10198000890702D549F64040C0E7032ABED1216845
:101990008903BBD54FF22440B8E7000002030405D9
:1019A000060708090A0B0C0D0E0F101001020000AB
:1019B0000010024000127A0000093D002DE9F843B2
:1019C0000446DFF8F8802078C0075FD00027D8F8F9
:1019D0001C00C0000BD4D8F81C0040F08050C8F8A0
:1019E0001C00D8F81C0000F0805000900127344DF6
:1019F0002868C00512D4286840F480702860FFF77A
:101A0000D3FE064607E0FFF7CFFE801B642802D90D
:101A10000320BDE8F8832868C005F4D5D8F8200075
:101A200000F4407010B3A18801F4407181421DD0D0
:101A3000D8F8200020F44070224901220A600022D8
:101A40000A60C8F82000C00710D0FFF7ADFE0546B9
:101A500041F2883606E0FFF7A7FE401BB04201D9ED
:101A60000320D6E7D8F820008007F4D5D8F8200066
:101A7000616820F440700843C8F82000012F05D1A8
:101A8000D8F81C0020F08050C8F81C00207880078F
:101A900007D5D8F80400A16820F440400843C8F8EE
:101AA00004002078C00607D5D8F80400616920F446
:101AB00080000843C8F804000020AAE70010024094
:101AC00000700040400442422DE9F04704460D46B4
:101AD000002C17D0DFF83081D8F8000000F00700A4
:101AE000A84211D2D8F8000020F007002843C8F817
:101AF0000000D8F8000000F00700A84204D0012040
:101B0000BDE8F0870120FBE72068404E810712D531
:101B1000400703D5706840F4E060706020780007EB
:101B200003D5706840F4605070607068A16820F060
:101B3000F000084370602078C0072CD0606801284E
:101B400006D0022809D0316889070BD40120D7E7D5
:101B50003168890306D40120D2E73168890101D4B4
:101B60000120CDE7716821F0030101437160FFF7A7
:101B70001BFE074641F2883906E0FFF715FEC01B41
:101B8000484501D90320BBE77068616800F00C008C
:101B9000B0EB810FF1D1D8F8000000F00700A842A7
:101BA0000ED9D8F8000020F007002843C8F800003C
:101BB000D8F8000000F00700A84201D001209FE7FC
:101BC0002078400705D57068E16820F4E06008439C
:101BD00070602078000706D57068216920F4605095
:101BE00040EAC100706000F03FF87168084AC1F334
:101BF0000311515CC8400749086007480068FFF7B7
:101C0000F3FD00207CE700000020024000100240AD
:101C10005A780208000000207C000020014800687B
:101C2000704700000000002000B5FFF7F7FF0449EF
:101C30004968044AC1F30221515CC84000BD00005C
:101C4000001002406A78020800B5FFF7E7FF044978
:101C50004968044AC1F3C221515CC84000BD00007C
:101C6000001002406A78020885B014A090E80E00C7
:101C7000C068CDE902230191049014A0006800908F
:101C8000134B5968134801F00C02042A10D0082A9B
:101C90000ED101A8C1F38342805CC9030AD55968FB
:101CA000C1F340411DF801100A4A5043B0FBF1F066
:101CB00005B0704708494843FAE7000002030405ED
:101CC000060708090A0B0C0D0E0F10100102000088
:101CD0000010024000127A0000093D002DE9F84F83
:101CE0000446002C0ED02078D94DC0075ED068681D
:101CF000C0F3810001280BD06868C0F3810002287E
:101D000003D00CE00120BDE8F88F6868C00306D559
:101D1000286880034AD56068A8BB0120F3E76068A3
:101D2000B0F5803F11D0A8B1B0F5A02F1BD0286826
:101D300020F480302860286820F4802028606068C3
:101D400030B3FFF731FD06461EE0286840F48030CE
:101D50002860F4E7286820F480302860286820F4A0
:101D600080202860EBE7286840F4802028602868FD
:101D700040F480302860E2E7FFF716FD801B6428FE
:101D800002D90320BFE711E028688003F4D50DE0F5
:101D9000FFF70AFD064606E0FFF706FD801B6428F4
:101DA00001D90320AFE728688003F5D42078DFF855
:101DB000A48280074FF0010A4FF0000945D56868FA
:101DC00010F00C0F07D06868C0F38100022812D110
:101DD0006868C0030FD42868800704D520690128EB
:101DE00001D001208FE72868616920F0F80040EAFF
:101DF000C100286029E02069B8B1C8F800A0FFF749
:101E0000D3FC064606E0FFF7CFFC801B022801D971
:101E1000032078E728688007F5D52868616920F0F5
:101E2000F80040EAC10028600FE0C8F80090FFF712
:101E3000BBFC064606E0FFF7B7FC801B022801D971
:101E4000032060E728688007F5D42078000726D5AE
:101E50008148A16999B1C0F800A0FFF7A5FC06462A
:101E600006E0FFF7A1FC801B022801D903204AE706
:101E7000686A8007F5D5012000F068FE0FE0C0F821
:101E80000090FFF791FC064606E0FFF78DFC801BF3
:101E9000022801D9032036E7686A8007F5D4207844
:101EA000400773D50026E869C00008D4E86940F00F
:101EB0008050E861E86900F0805000900126DFF86A
:101EC0009CB1DBF80000C00514D4DBF8000040F43E
:101ED0008070CBF80000FFF767FC074606E0FFF7CD
:101EE00063FCC01B642801D903200CE7DBF8000069
:101EF000C005F4D5E068012812D0B0B105281DD086
:101F0000286A20F001002862286A20F00400286274
:101F1000E06841F2883B28B3FFF746FC07461DE026
:101F2000286A40F001002862F2E7286A20F00100E8
:101F30002862286A20F004002862E9E7286A40F055
:101F400004002862286A40F001002862E0E7FFF7F9
:101F50002BFCC01B584501D90320D4E6286A800712
:101F6000F5D50DE0FFF720FC074606E0FFF71CFC67
:101F7000C01B584501D90320C5E6286A8007F5D45F
:101F8000012E03D1E86920F08050E861E069A0B338
:101F90006968C1F38101022946D0022805D0C8F83A
:101FA0006090FFF701FC04463AE0C8F86090FFF744
:101FB000FBFB064606E0FFF7F7FB801B022801D972
:101FC0000320A0E628688001F5D4206AB0F5803FA0
:101FD00005D16868A16820F4003008436860D4E93E
:101FE00008010843696821F4741108436860C8F85F
:101FF00060A0FFF7D9FB044607E026E0FFF7D4FB1B
:10200000001B022801D903207DE628688001F5D550
:102010001BE0FFF7C9FB001B022801D9032072E671
:1020200028688001F5D410E001280CD06868226A85
:1020300000F48031914204D1616A00F4701088424A
:1020400003D001205FE601205DE600205BE6000092
:1020500000100240000042428004424200700040F2
:1020600070B504460025A06C002807D0FFF786F85D
:1020700020B1606D40F0100060650125E06C38B162
:10208000FFF77CF820B1606D40F01000606501251D
:102090002068416821F003014160012084F851006B
:1020A000284670BD704770B50446002C0AD0606A9F
:1020B000002548B1256165614FF4005694F8510040
:1020C00040B10CE0012070BD6068B0F5827FF3D0B4
:1020D000E561F1E784F85050204600F046F8022010
:1020E00084F851002068016821F040010160A08857
:1020F000218900F4827001F404410843A18901F4AC
:1021000000610843217C01F002010843217D01F0B8
:1021100001010843218B01F400710843217F01F084
:102120003801084394F8201001F080010843218D04
:1021300001F40051084321680860A069042101EA04
:10214000104021684860A06AB04203D1A08D216888
:1021500080B208612068C16921F40061C1616565D0
:10216000012084F85100002070BD70472DE9F84F20
:1021700004468A4693461D46002694F850000128DE
:102180000DD04FF0010984F85090FFF70DFB074682
:1021900094F85100B046012804D00226BCE0022089
:1021A000BDE8F88FBAF1000F1CD05FEA0B0019D020
:1021B000032084F85100C4F85480C4F830A0A4F877
:1021C00034B0A4F836B0C4F83880A4F83C80A4F841
:1021D0003E80C4F84480C4F84080A068B0F5004F49
:1021E00002D00BE0012697E02068016821F0400151
:1021F00001602068016841F480410160A06A4FF4E9
:10220000005A504509D12068016821F4005101604D
:102210002068016841F400510160206801684906A6
:1022200003D4016841F040010160E068B0F5006F3F
:1022300005D0606878B3BBF1010F2DD04DE0606828
:1022400010B1BBF1010F20D1206B21680088C8605C
:10225000206B801C2063E08E401EE08615E0206825
:102260008168890709D5216B0988C160206B801CB2
:102270002063E08E401EE08607E0FFF795FAC01B62
:10228000A84201D3681C04D11DB1E08E0028E6D11C
:1022900026E0032640E0FFE7206B21680078087302
:1022A000206B401C2063E08E401EE08615E0206815
:1022B0008168890709D5216B09780173206B401C5F
:1022C0002063E08E401EE08607E0FFF76DFAC01B3A
:1022D000A84201D3681C16D1ADB1E08E0028E6D12A
:1022E000A06A504504D12068016841F48051016022
:1022F0003A462946204600F083FC08B1202060655C
:10230000A06810B105E0032606E02068C168806877
:102310000090606D00B1012684F8519084F85080DF
:1023200030463DE72DE9F0410446002594F8500081
:10233000012809D0012784F8507094F85100002634
:10234000012804D002255CE00220BDE8F08189B1BB
:1023500082B1032084F8510066652163A286E2867B
:10236000A66366642664A687E687A068B0F5004F7A
:1023700002D00BE0012544E02068016821F0400113
:1023800001602068016841F480410160A06AB0F5F5
:10239000005F09D12068016821F4005101602068C4
:1023A000016841F400510160A16C1848C862A16C39
:1023B00017488862A16C17480863A06C4663E38ED7
:1023C0002268216B0C32A06CFEF7E4FF38B1606D1F
:1023D00040F010006065012584F8517011E020681C
:1023E0000168490603D4016841F04001016020689A
:1023F000416841F0200141602068416841F00201DC
:10240000416084F8506028469FE70000932B000845
:102410009D2B0008712B0008704770474FF0E0219A
:10242000042804D0086920F0040008617047086996
:1024300040F004000861704710B5401EB0F1807F85
:1024400001D3012010BD4FF0E02460610F2160171F
:1024500000F0D5FD0020A06107202061002010BD04
:102460007047000070B5044622681068D168526950
:1024700000F00F03002B08D1850606D58D0604D584
:102480002046BDE8704000F09ABC002B60D002F0FE
:10249000010301F490751D435AD0C50705D0CD0541
:1024A00003D5E56B45F00105E563450705D5D5077F
:1024B00003D0E56B45F00205E563850705D5D20736
:1024C00003D0E26B42F00402E263020707D501F099
:1024D00020021A4303D0E26B42F00802E263E26B8F
:1024E000002A2AD0800604D5880602D5204600F0AE
:1024F00066FC20684069C0F38010E16B090700D4D6
:1025000000B3204600F040FC20684169490615D51B
:10251000416921F040014161606B58B11549416347
:10252000606BFEF74FFE002807D0606B416BBDE883
:10253000704008472046FFF793FF70BD2046FFF725
:102540008FFF70BD2046FFF78BFF0020E06370BD5A
:10255000020606D50A0604D52046BDE8704000F004
:10256000D3BC4006F3D54806F1D52046BDE87040FF
:1025700000F018BC792D000870B50446002C04D07A
:1025800094F83900002510B106E0012070BD84F8F0
:102590003850204600F022F8242084F839002068C2
:1025A000C16821F40051C160204600F051FC206850
:1025B000016921F4904101612068416921F02A01FB
:1025C00041612068C16841F40051C160E563202089
:1025D00084F8390084F83A00002070BD10B586B048
:1025E00000682549884244D12448816941F00801A6
:1025F0008161816901F008010191816941F008015F
:102600008161816901F008010191816941F4804192
:102610008161816901F480410191816941F0010189
:102620008161806900F0010001901549486840F01F
:10263000E06040F0040048604020029002200390D7
:1026400001200490032005900E4C02A92046FEF7BD
:1026500093FF802102910021039102A92046FEF7F9
:102660008BFF2520FFF7E3F8002202212520FFF74A
:10267000EBF806B010BD0000003801400010024029
:1026800000000140000C014090F83A30202B01D0AE
:1026900002207047F9B1F2B190F83830012B1CD00C
:1026A00081628285C2850021C163222280F83A209E
:1026B00080F838100168CA6842F48072CA60016804
:1026C0004A6942F001024A610068C16841F0200194
:1026D000C160002070470120704702207047000051
:1026E00010B500681F4988421AD11F4A1078002887
:1026F00016D1911C08787B2802D0507800280FD082
:102700000B781A485478035553785B1C53705378F0
:10271000142B05D1097800237D2902D01370537042
:1027200010BD1249047814390C7044784C708478C8
:102730008C70C478CC7084888C80C488CC800489E8
:102740000C8144894C8184898C81C489CC81048A20
:102750000C82847C8C74C07CC8740120107053700F
:1027600010BD0000003801406E0000207003002002
:102770002DE9F84304460E4615461F4694F83900E5
:10278000202802D00220BDE8F883C6B1BDB194F87C
:102790003800012815D0012084F838004FF00009D6
:1027A000C4F83C90212084F83900FEF7FDFF8046F4
:1027B000A584E584A068B0F5805F04D005E0012021
:1027C000E1E70220DFE7206920B13546002684F8E2
:1027D000389013E00025FAE7434600228021204686
:1027E000009700F0C0FB08B10320CCE79DB1216841
:1027F00015F8010B4860E08C401EE084E08C002856
:10280000EAD14346002240212046009700F0ABFB6E
:1028100040B10320B7E736F8020B2168C0F3080087
:102820004860E8E7202084F839000020ABE77047D3
:10283000FEE7000070B5054600F030F8642004F0B3
:1028400053FD144C206840F080702060642004F038
:102850004BFD206840F480702060642004F044FD4B
:102860000D49F02008804FF48C7048800D712A20AB
:1028700008812B2048812C20C88028460DF008F9BB
:102880004FF4784000F0C6F8BDE87040C82004F06E
:102890002BBD000010080140E005002070B586B097
:1028A0002648816941F480518161816901F4805138
:1028B0000191816941F004018161806900F00400A7
:1028C00001900125039540F20470029004950320C5
:1028D00005901B4C02A92046FEF74EFEA021029156
:1028E0000226039602A92046FEF746FE164C15481E
:1028F00020604FF4827060600020E06165612661B5
:10290000E060A0606902A1612062A0620720E0622D
:102910002046FFF7C8FB04F01FFD04F15800A06437
:1029200044622068016841F04001016004481030B1
:10293000016841F00401016006B070BD0010024062
:1029400000080140003001404405002070B50546F4
:102950000C461348016841F080610160016841F450
:10296000007101604FF6E85610E03246944207D3FA
:1029700029460C48FFF7D6FCA4F57D44E83C05E069
:10298000A2B229460748FFF7CDFC0024002CECD169
:10299000054801780129FCD10021017070BD0000BB
:1029A00010080140440500208C00002031B50A4C7D
:1029B000206840F080602060206840F40070206053
:1029C0004FF47A73012269460448FFF7CFFB206871
:1029D00040F48060206038BD1008014044050020AC
:1029E00031B50A4C206840F080602060206840F0DB
:1029F000007020604FF47A73012269460448FFF7A3
:102A0000B5FB206840F48060206038BD10080140AC
:102A1000440500202DE9F0470646DFF890800021AC
:102A2000B8F80200401E83B2B8F80000401E82B21F
:102A3000084600F03DF80024350A4FF4166A4FF0BE
:102A4000050908F10C07F6B20CE0002051463D5490
:102A50003A185670801C8842F9D314480C30FFF79E
:102A600075FF641CB8F80200B0FBF9F0A042ECD886
:102A7000B8F80200B0FBF9F109FB1101002913D0ED
:102A80000020C1EB011203E03D543B185E70801C36
:102A9000B0EB421FF8D3BDE8F047C1EB0110410194
:102AA00002480C30FFF752BFBDE8F087E005002078
:102AB0002DE9F04107461446002C28D0002B26D0E3
:102AC00014318DB214339EB22A20FFF789FF380AE1
:102AD000FFF76CFFF8B2FFF769FF200AFFF766FF08
:102AE000E0B2FFF763FF2B20FFF77AFF280AFFF71A
:102AF0005DFFE8B2FFF75AFF300AFFF757FFF0B269
:102B0000FFF754FFBDE8F0412C20FFF769BFBDE897
:102B1000F081FEE770B504464FF6FF7000234AF2DD
:102B20000105891E0CE0E25C50400022C60702D07D
:102B30004008684000E04008521C082AF6DB5B1C95
:102B40008B42F0DB70BD7047FEF7B2BE08B5074997
:102B50004FF4FA520968B1FBF2F14143009100BF12
:102B60000098411E0091FAD208BD0000000000202C
:102B700010B5406A01684A6822F003024A60416D5C
:102B800041F010014165012180F85110FFF78AFAE8
:102B900010BD10B5406AFFF740FC10BD38B50546C2
:102BA0006C6AFEF701FE024628680068800623D49E
:102BB0002068416821F0200141602068416821F0CF
:102BC000020141606421204600F01AF818B1606DDE
:102BD00040F020006065A068002118B92068C26834
:102BE00080680090E186012084F85100606D18B182
:102BF0002046FFF757FA38BD2046FFF70DFC38BDD9
:102C000038B504460B46009200228021204600F091
:102C100009F828B1606D40F020006065032038BDE0
:102C2000002038BD2DE9F84304460F4691461E4664
:102C3000089DFEF7B9FD401B351AFEF7B5FD80462D
:102C400026480068C0F3CB30684300903AE0701C1F
:102C500038D0FEF7A9FDA0EB0800A84203D215B1B9
:102C6000009858B32BE02068416821F0E0014160F2
:102C70006068B0F5827F0BD1A068B0F5004F02D03C
:102C8000B0F5806F04D12068016821F04001016037
:102C9000A06AB0F5005F09D12068016821F40051F5
:102CA00001602068016841F4005101600120503446
:102CB0006070002020700320BDE8F8830025009894
:102CC000401E00902068806837EA000004D0002091
:102CD0004845BCD10020EFE70120F9E700000020C3
:102CE00010B5FEF767FD23F0BBFC012803D0BDE85B
:102CF000104023F073B810BD7047000070B586B067
:102D00001A48816941F010018161806900F010006A
:102D10000190174D03950220029001240494059020
:102D2000144E02A93046FEF727FC0021039104212E
:102D3000029102A93046FEF71FFC03950294049409
:102D400002A93046FEF718FC002204210720FEF7F6
:102D50007BFD0720FEF76BFD002204210620FEF715
:102D600073FD0620FEF763FD06B070BD0010024043
:102D7000000021100010014010B5406A0021C185FB
:102D8000C184FFF76DFB10BD0168CA6822F4907220
:102D9000CA6001684A6922F001024A61202180F874
:102DA0003A10704710B50168CA6822F04002CA6044
:102DB000202180F83910FFF73AFD002010BD10B532
:102DC00090F83A10222901D0022010BD82684FF4F9
:102DD00080539A4201D1016921B1816A9A421DD082
:102DE00052B10BE0816A02685268C2F308020A809D
:102DF000816A891C816209E002697AB102685268BD
:102E000002F07F020A70816A491C8162C18D491EED
:102E10000904090CC18505D0002010BD0268526864
:102E20000A70F0E70168CA6822F02002CA600168EF
:102E3000CA6822F48072CA6001684A6922F00102FD
:102E40004A61202180F83A10FFF74AFC002010BDAB
:102E500070B5044620680169E26821F440511143CD
:102E60000161A16820690143606901432068C2686B
:102E700041F20C639A430A43C26020684169A26927
:102E800021F44071114341611E492068884202D1FA
:102E9000FEF7DAFE01E0FEF7C7FE00EBC00101EB32
:102EA0000010616864228900B0FBF1F3B3FBF2F318
:102EB0006FF018067343B0FBF1F5B0FBF1F605EBCC
:102EC0008305322303EB0515B5FBF2F5B6FBF2F6ED
:102ED00005F0F00505EB0615B0FBF1F6B0FBF1F0DF
:102EE000B0FBF2F06FF01801484306EB800003EBF3
:102EF0000010B0FBF2F0216800F00F002844886059
:102F000070BD00000038014090F83910212901D02F
:102F1000022070478168B1F5805F01D1016961B11C
:102F2000016A4A1C0262026809785160C18C491E1C
:102F30000904090CC1840AD013E0016A02680988F7
:102F4000C1F308015160016A891C0162EEE7016862
:102F5000CA6822F08002CA600068C16841F040017E
:102F6000C160002070472DE9F04104460E46174627
:102F70009846069D1DE0681C1BD02DB1FEF714FC81
:102F8000A0EB0800A84214D92068C16821F4D071D0
:102F9000C1602068416921F001014161202084F86D
:102FA000390084F83A00002084F838000320BDE896
:102FB000F0812068006836EA000004D00020B842A2
:102FC000D9D00020F3E70120F9E7000008B509484F
:102FD000FFF748FA074800680168C943090702D4A7
:102FE000016840680090BDE808400122024901489C
:102FF000FFF74ABB6C04002070000020FEE70907C1
:10300000090E002804DB00F1E02080F8001470476E
:1030100000F00F0000F1E02080F8141D704770B53B
:10302000044600256FF02F0608E02068411C21604F
:10303000007805EB850106EB410145182068007812
:1030400000F004F80028F0D1284670BD3038092877
:1030500001D80120704700207047000010B54021C2
:10306000074801F0E9F80022282106481CF00EF973
:10307000054CA06002F05AFA0020207010BD00003C
:10308000A89F0020D5550008BC01002070B5B1F9FB
:103090000040B2F900309C4200DD23460380B1F9C4
:1030A0000240B2F90250AC4200DC2C464480B1F937
:1030B0000460B2F90450AE4200DA35468580B1F9B9
:1030C0000610B2F90620914200DB1146C1800120B2
:1030D000AB4201DC8C4200DD002070BDF8B5044637
:1030E0000D4616460020B4F90010B5F900209142B3
:1030F00012DBB4F90220B5F902309A420CDBB4F9C4
:103100000420B5F904309A4206DCB4F90620B5F97A
:1031100006309A4200DC012088B38EB3ADF800106F
:103120006088ADF8020032466946284600F0ACF8E7
:1031300038B3A088ADF800006088ADF802003246D0
:103140006946284600F0A0F810B32088ADF80000CA
:10315000E088ADF8020032466946284600F094F84F
:10316000C0B1A088ADF80000E088ADF8020032469A
:103170006946284600F088F870B10120F8BD01E0EA
:1031800002E003E00020F9E70120F7E70020F5E77F
:103190000020F3E70020F1E70020EFE7B0F900207E
:1031A000B1F904309A4213DCB0F90420B1F90030CF
:1031B0009A420DDBB0F90220B1F906309A4207DCE1
:1031C000B0F90600B1F90210884201DB0120704716
:1031D00000207047F8B504460D461646B4F90400C1
:1031E000B5F90010884211DBB4F90600B5F90210F8
:1031F00088420BDBB4F90000B5F90410884205DC05
:10320000B4F90210B5F90620914201DD0120F8BDA4
:1032100066B1ADF800006088ADF80200324669463C
:10322000284600F031F818B10020F8BD0020F8BDA4
:10323000A088ADF800006088ADF80200324669460B
:10324000284600F021F808B10020F8BD2088ADF82C
:103250000000E088ADF8020032466946284600F0DA
:1032600013F808B10020F8BDA088ADF80000E08890
:10327000ADF8020032466946284600F005F808B16C
:103280000020F8BD0120F8BD2DE9FC4105460F46A0
:1032900014460020B7F90010B5F9002091420EDB6A
:1032A000B5F9042091420ADCB7F90210B5F9022001
:1032B000914204DBB5F90620914200DC012020B1E7
:1032C000002C04DC0120BDE8FC810020FBE728463F
:1032D0000DF08CFC00EBD070461028460DF041FC40
:1032E00000EBD0704010864200DA3046844200DDA8
:1032F00004462888ADF8000028882044ADF8040072
:103300006888ADF8020068882044ADF80600002205
:1033100039466846FFF7B8FF70B1BDF80400204495
:10332000ADF80400BDF806002044ADF806003946AB
:10333000684619F018FBC6E7E888001BADF80200E4
:10334000E888ADF80600002239466846FFF79CFF82
:1033500070B1BDF804002044ADF80400BDF80200CF
:10336000001BADF802003946684619F0FCFAAAE7DE
:10337000A888001BADF80000A888ADF80400002262
:1033800039466846FFF780FF70B1BDF80000001BAA
:10339000ADF80000BDF80200001BADF80200394690
:1033A000684619F0E0FA8EE76888ADF80200688890
:1033B0002044ADF80600002239466846FFF764FF56
:1033C00070B1BDF80000001BADF80000BDF80600AC
:1033D0002044ADF806003946684619F0C4FA72E791
:1033E000012070E710B5B1F90030B2F90040A342F6
:1033F00000DB23460380B1F90230B2F90240A34258
:1034000000DB23464380B1F90440B2F904309C420A
:1034100000DD23468380B1F90610B2F906209142FF
:1034200000DC1146C18010BD2DE9FF4107461BF0AD
:103430002AFF064600250395344C2FB1F8686060DA
:1034400038461CF04DF802E00FF048F96060606803
:10345000006919F015FA6068406908B119F010FAAE
:103460006068C06919F00CFA6068006A19F008FA1F
:1034700060680169F1B319F0B3FC19F025FC6068CC
:10348000B0F8501199B30168097C890715D50FF080
:103490008CF9401E07B260680FF036F9401E03B287
:1034A0000022114601A800970DF0D2FB606801A927
:1034B0000268926B516004F061FE60684FF48071A5
:1034C000303015F092F96068202100F5987015F001
:1034D0008CF96068A0F8505130461BF0C9FE03908B
:1034E00060680068436A13B122680399984714F032
:1034F000B7FF00E005E000F035F8BDE8FF4100F05F
:1035000007B8A0F85051BDE8FF8100004401002039
:1035100070B50024084EC4EBC40556F8250008B168
:1035200015F014F806EB85001C2115F05EF9641CFB
:10353000E4B2042CEFD370BD84A000200849496890
:103540000AE04A68824202D00A68824203D10A7EB7
:1035500042F001020A7649690029F2D17047000061
:1035600018010020704700000421014800F064BEEB
:103570009C9F00201C21014800F05EBEB49F0020EB
:103580002DE9F04F85B00446DDE90E06002B02D18F
:10359000B0F5807F7DD0B6F900504FF0FF376D4217
:1035A000454307EB25252DB22580B6F902C0CCF1A5
:1035B000000C0CFB00FC07EB2C273FB26780B6F930
:1035C00000C0A1EB0C0141434FF0020C0CEB212198
:1035D00009B2A180B6F90280A2EB080242430CEBCB
:1035E000222000B2E080002B7DD04FF00A0993FB2F
:1035F000F9F505F10108684200EB800003EB400794
:1036000028B21CF09DF982460FFA88F01CF098F958
:1036100083465A3528B21CF093F9054608F15A083A
:103620000FFA88F01CF08CF90146C7F10A0000FB84
:103630000AF20BFB072292FBF9F2684301FB070039
:1036400090FBF9F057114FEA601CB4F90000B4F98F
:1036500002300CFB00FE07FB13E1B6F8009009EB0B
:10366000A1210DB2ADF80C5007FB00F20CFB0320BA
:10367000B6F802A00AEBA02001B2ADF80E10B4F922
:1036800004600CFB06FB07FB13B009EBA02000B2A3
:1036900000E031E0ADF808007E430CFB03630AEB69
:1036A000A3231BB20496ADF80A30B4F9068007FBD9
:1036B00018E609EBA62636B2ADF804600CFB08222A
:1036C0000AEBA22212B2ADF8062007FB18B709EBED
:1036D000A7273FB2ADF80070DDF810900CFB089CF6
:1036E0000AEBAC2C00E011E00FFA8CFCADF802C044
:1036F000AE4218DAB04617E0002020806080491EF4
:10370000A180521EE28005B0BDE8F08F32882A44C5
:10371000228072883A44628032881144A180718884
:103720000844E080EFE7A846874201DAB94600E0A6
:103730008146C84505DAAE4201DAB04606E0A84641
:1037400004E0874201DAB84600E08046A4F8008031
:10375000AE4201DDB04600E0A846874201DDB94631
:1037600000E08146C84505DDAE4201DD304604E09B
:10377000284602E0874200DD3846A0808A4201DA0E
:10378000104600E008469C4501DA654600E01D460B
:10379000A84205DA8A4201DA104606E0084604E04B
:1037A0009C4501DA604600E0184660808A4201DDEF
:1037B000104600E008469C4501DD654600E01D46D8
:1037C000A84203DD8A4206DD114604E09C4501DD86
:1037D000614600E01946E18095E72DE9FF5F044668
:1037E000D4F800B0B4F90800081AB4F90A10511A54
:1037F000E589D4E90932B5F5807F1FD0A5895DB38D
:10380000A56B684340114D436911256BE66A05FBC2
:1038100000F706FB117703EBA729464305FB016080
:1038200002EBA02A4FEA29254FEA2A26B4F9040020
:10383000A8421BDC002004B0BDE8F09F256BE66ABF
:1038400005FB00F706FB117703EBA709464305FBD1
:10385000016002EBA00AE5E7A56B684340114D4308
:10386000691103EB000902EB010ADBE7002D01DA25
:103870000020E0E7B4F90610B14201DC0020DAE7ED
:10388000002E01DA0020D6E794F834104A0723D539
:10389000890704F114030CD44FF002087100484367
:1038A00005FB08070BEB07014246184614F04FFFD3
:1038B00028E04FF0030806EB4601484305FB0807E4
:1038C0000BEB07010222184614F041FFF81C584484
:1038D00010F8010CA07515E00027B84632B2236934
:1038E00004F11800CDE9020229B28B4612F050FB18
:1038F0000190BDF80400A082DDE90202594612F0F1
:10390000D5FAA07594F83400C0070CD04EF2070029
:103910000090BDF800000190A08ABDF80410884214
:1039200001D1002087E7E07C80B1A4F83C90A4F8A6
:103930003EA0A4F84050A4F84260676484F8488030
:1039400004B02046BDE8F05F00F002B8012072E745
:103950002DE9F04F89B00446D4F800B094F83C103B
:1039600094F83E004FF0FF36702909DA3546B4F975
:103970004020012A00D50025803101F0FF0813E026
:1039800090290EDD0125B4F94020B4F90430521C11
:103990009A4200DB0025A1F27F11494201F0FF08A5
:1039A00002E000254FF0FF08702807DAB4F9421052
:1039B000012900D500268030C7B211E090280DDD26
:1039C0000126B4F94210B4F90620491C914200DBEB
:1039D0000026A0F27F104042C7B201E00026FF2778
:1039E00060690890A07D04904FF0000AD146002045
:1039F000039094F83400400745D594F84810606C63
:103A0000022201FB050000EB0B0107A814F09FFE4A
:103A1000B4F9040094F8481002224843616C06FB94
:103A2000001000EB0B0106A814F091FEB4F904108D
:103A300094F84800626C414306FB012100FB05B08D
:103A40000144022205A814F082FE94F83400800795
:103A50005FD594F84800626C00EB0B0100FB052376
:103A60000B4413F801ACB4F90430434306FB0322C2
:103A7000114411F8019C00FB05001044584410F853
:103A8000010C039045E0B4F84000B4F9422028440A
:103A900001B204F118008346236912F079FA079005
:103AA0001034608EB4F93010304402B258462368A6
:103AB00012F06EFA0690608E2368304402B2208EB7
:103AC000284401B2584612F063FA059094F8240095
:103AD000103C80071DD540342088B4F902202844CA
:103AE00001B2584612F0E2F982466088B4F900103B
:103AF000304402B2584612F0D9F981466088304409
:103B000002B234F84009284401B2584612F0CEF906
:103B10000390424694F83400800738D50498C8F1E1
:103B2000FF0100FB08F00AFB0100C0F30720039D22
:103B300009FB08F305FB0131C1F3072100FB07F383
:103B4000C7F1FF0501FB05331B0AA375022805D841
:103B5000022903D8002009B0BDE8F08F022800D860
:103B60000027022900D8FF270498022800D8002245
:103B7000BAF1020F00D8FF22B9F1020F01D84FF0BD
:103B800000080398022804D84FF0FF0801E0FF2046
:103B9000A07502B3FF2A21D0DDE907100EF0ACFAC0
:103BA0000290B8F1000F1CD0B8F1FF0F1CD0DDE976
:103BB000051042460EF0A0FA0190C7B1FF2F1AD0AF
:103BC000DDE901103A460EF097FA0090BDF80000CA
:103BD000A0820120BFE707980290E2E708980290D0
:103BE000DFE705980190E8E706980190E5E7BDF862
:103BF0000400A082EDE7BDF80800A082E9E72DE906
:103C0000F05F0446B4F9080000026062B4F90A00EB
:103C10000002A062B4F90C004FF00A0890FBF8F51E
:103C20006F1C694201EB810100EB4106684200B262
:103C30001BF086FE8146784200B21BF081FE824670
:103C4000C5F15A0000B21BF07BFE8346C7F15A0053
:103C500000B21BF075FE0146C6F10A0000FB09F236
:103C60000AFB062292FBF8F200FB0BF001FB0600B8
:103C700090FBF8F05111E16240112063A07C12F03A
:103C800044FA94F8341060F3000184F83410A07CF6
:103C900012F02BFA94F8341060F3410184F83410D8
:103CA000A07C042823D0052821D006281FD021F08D
:103CB000040184F8341021682162A16921F0E00137
:103CC00060F30401A08860F39421E08860F35F5101
:103CD000A161E0894FF4001101EB5001B1FBF0F05C
:103CE000A063FF20A075208AA082BDE8F09F41F06C
:103CF000040184F83410DEE7F7B506461746114C88
:103D00001BF0C1FA05463B4631462046019A12F0A7
:103D1000ADFD20B10020A062E06948B10CE02C218B
:103D2000204614F062FD4FF00040A0620020FEBD6E
:103D300028461BF09DFAE061E06908B90120E061C6
:103D40002046FEBDD89F002010B514210C4800F07D
:103D500073FA12F04BFD02468AB10A49104612F07E
:103D6000FEFD0949104612F0FCFD0849104612F00C
:103D7000FAFDBDE810400649104612F0EEBDFEE720
:103D8000C09F0020C9610108BD6501085567010891
:103D90009561010870B504460D461021284614F0BF
:103DA00024FD20680078012804D0022807D00428C8
:103DB00008D009E0208A2880608A688004E0E068F2
:103DC000686001E00A20686020684268002A03D029
:103DD0002946BDE87040104770BDFEB50446A56A8F
:103DE000002D18D1A08A218A0844A082E08A618A25
:103DF0000844E082204608F04FFE0546280072D0B5
:103E000020460BF08DF900220921284611F004FB11
:103E10006078800767D4208A10B9608A002862D051
:103E200000260296019694F83C0000F00F0003284B
:103E300016D0284616F0EAF80746284615F096FFF1
:103E400003460C200090B4F912103A46284608F0B8
:103E500022FA0190284615F0DBFFC10712D016E0C8
:103E6000284616F061F80746284615F0FBFF024683
:103E700003200090B4F910103B46284608F00BFAD6
:103E80000290E7E7BDF90810002900DD02968107DE
:103E900004D4BDF90810002900DA0296410704D4C1
:103EA000BDF90410002900DD0196000704D4BDF916
:103EB0000400002800DA019601AA02A920461EF09B
:103EC0003AFB0023BDF90420BDF90810284618F07C
:103ED00069F8A08ABDF808100844A082E08ABDF8FD
:103EE00004100844E082FEBD2DE9FC5F0446D4F8CE
:103EF0002880B8F1000F7DD094F83C00000779D0FD
:103F000013F08AF8019001980068467E40214046EF
:103F100016F0C7FF002708B967832783404616F0CD
:103F200063F88146404616F068F8054694F83C0070
:103F3000642100F00F0041F6FF7ACAF1000B0C2853
:103F400002D003283DD05CE02783D5B120461EF087
:103F50003BFB009067836A46002120461EF0EBFA87
:103F6000BDF9003052465946404608F017FFBDF8EB
:103F700000100123084402B20021404618F012F854
:103F80003FE0B4F91A00C6F16402504390FBF1F02F
:103F90006083404615F0EAFE0646404616F036F8C5
:103FA00002460C200090B4F91A103346404608F03F
:103FB00072F96083024600231946404617F0F2FF6B
:103FC0001FE06783B9F1000F23D020461EF0E5FA09
:103FD000009027830022694620461EF0ACFABDF906
:103FE000003052465946404608F050FEBDF80010D9
:103FF000084400E078E001B201230022404617F0B7
:10400000D1FF208B00286FD1608B00286CD105B3C5
:104010003CE0B4F91800C6F16402504390FBF1F0A3
:104020002083404615F01EFF0646404615F07CFFF3
:10403000034603200090B4F918103246404608F0B9
:104040002AF92083014600231A46404617F0AAFFAA
:10405000D7E7404615F0DAFF0546404615F086FEE4
:10406000002D01DC002811DD002D06DA01232A468F
:104070000021404617F096FF08E0002806DA40428B
:1040800002B201230021404617F08CFFB9F1000F66
:104090001CD1404615F0E6FE0546404615F044FFAB
:1040A000002D01DC002811DD002D06DA012300229D
:1040B0002946404617F076FF08E0002806DA40421D
:1040C00001B201230022404617F06CFF0A2140464E
:1040D000019A11F0A1F96078800705D42834207D79
:1040E00020F00F0020752760BDE8FC9F7FB50446D7
:1040F0000D46002C02D10EF0F1FA0446002C28D017
:1041000000263DB3ADF80860ADF80A6020460EF019
:10411000FBFA401EADF80C0020460EF046FB401E98
:10412000ADF80E0002AA29466846FEF7AFFF002848
:104130000FD02068017C89070FD5DDE90201C4E9B1
:104140000C010120A4F850016068002801D01BF088
:10415000D3F97FBDA4F850617FBD82690AB1694679
:10416000904700250AE004EBC50130310022684683
:10417000FEF7B4FF0028EFD16D1CADB2B4F85001CA
:10418000A842F0D8B4F85001202806D204EBC000B1
:10419000303069460CF076FC06E0A4F8506104F17A
:1041A000300002A90CF06EFCB4F85001401CA4F8D9
:1041B000500160680028CFD01BF09EF97FBD70B51C
:1041C0000646304600F012F804460CE02146304620
:1041D00000F023F805462146304600F07EF82046E0
:1041E00014F0B4F92C46002CF0D170BD002801D099
:1041F000406870470020704700B50346002218460B
:10420000FFF7F4FF014604E0521C184600F005F8E1
:1042100001460029F8D1104600BD0068091D084478
:10422000006870470068084400687047002801D0A3
:104230008068704700207047002242608260C91C7D
:1042400021F003010160704770B504462068083012
:1042500014F0F0F805469DB10022294620461CF0D6
:104260005CFD2946204662681CF04EFD616819B16C
:104270002A4620461CF051FD6560A06800B9A56083
:10428000284670BD70B504462068083014F0D2F896
:1042900005469DB10022294620461CF035FD2946E1
:1042A0002046A2681CF039FDA16819B12A462046B3
:1042B0001CF02AFDA560606800B96560284670BDE5
:1042C000002802D0416811B103E0012070478068E6
:1042D00008B1002070470120704770B504460B46B6
:1042E000002C13D02046FFF781FF002298420ED108
:1042F00019462046FFF791FF606030B10146204625
:10430000BDE8704000221CF008BDA26070BD2046D0
:10431000FFF78CFF98420ED119462046FFF782FF27
:10432000A06030B101462046BDE8704000221CF07C
:10433000EBBC626070BD19462046FFF773FF05466F
:1043400019462046FFF769FF0646324629462046B1
:104350001CF0DAFC2A4631462046BDE870401CF0CD
:10436000DCBC10B50446206882680AB1214690473B
:1043700020680068002801D02060F4E710BD806844
:10438000002802D0B0F916007047002070470000E6
:104390002DE9F04792B005461A9C0F4691461E46FD
:1043A000688C40F004006884A5F820902289394682
:1043B000284616F01BFC824611902E84228939462D
:1043C000284616F013FC80461090698C21F00401F9
:1043D0006984824505D1BDF84400BDF8401088428B
:1043E0006AD0A5F8209022893946284616F0FEFBAF
:1043F000824611902E843946284609F0BBFE218959
:104400000068524619F0C8FC2089602825D147F67B
:10441000FF79CA4501D0C8451FD1284616F015FDC1
:1044200000EBD0704610284616F00FFD00EBD07060
:1044300040101199494506D1711C421C914200DA85
:1044400000E0411C1191C84507D1711C421C9142EA
:1044500001DA701C00E0401C10901948FFF7F4FED0
:10446000064666B31198F060109830613560208977
:10447000B080B76068460BF06BFE00961148019063
:1044800011480290114803900020FF2107900890E6
:10449000099120880A90608840420B90E06806905D
:1044A00000209DF83E1060F300018DF83E10206959
:1044B000059068460BF0AAFE12B0BDE8F087FEE753
:1044C000CC9F0020DF4A0208D94C0208294C020880
:1044D00014210148FFF7B0BECC9F00202DE9F84F12
:1044E000074688469146002500264FF0040A39E128
:1044F000F8680AEBC601405881016FD420F07F4074
:1045000018F0BBF930EA080113D0002130EA0900A5
:1045100011D00020814261D0F86850F836B00024F4
:104520006A4641F61001584619F039FA28B10124BB
:104530009CE00121EAE70120ECE76A4641F611011F
:10454000584619F02CFA08B101248FE06A4641F66A
:104550001201584619F023FA08B1012486E06A4690
:1045600041F61301584619F01AFA08B101247DE00A
:104570006A4641F61501584619F011FA08B10124AE
:1045800074E06A4641F61401584619F008FA08B179
:1045900001246BE06A4641F26901584619F0FFF9BF
:1045A00008B1012462E06A4643F20C01584619F052
:1045B000F6F908B1012459E06A4643F20D01584664
:1045C00019F0EDF908B1012450E06A4641F2010109
:1045D000584619F0E4F910B1012447E0C1E06A46F9
:1045E00041F20401584619F0DAF908B101243DE01E
:1045F0006A4641F20201584619F0D1F908B1012486
:1046000034E06A4641F20301584619F0C8F908B18E
:1046100001242BE06A4641F20501584619F0BFF922
:1046200008B1012422E06A4641F20601584619F019
:10463000B6F908B1012419E06A4641F23201584640
:1046400019F0ADF908B1012410E06A4643F60F01F4
:10465000584619F0A4F908B1012407E06A4643F668
:104660000E01584619F09BF900B1012414B1032042
:10467000BDE8F88F6A4640F60A01584619F08FF9EE
:1046800008B102256DE06A4640F60B01584619F064
:1046900086F908B1022564E06A4643F60F015846E0
:1046A00019F07DF908B102255BE06A4643F60E0178
:1046B000584619F074F908B1022552E06A4640F6EE
:1046C0003C01584619F06BF908B1022549E06A46E9
:1046D00040F63D01584619F062F908B1022540E064
:1046E0006A4640F63A01584619F059F908B10225D0
:1046F00037E06A464FF40461584619F050F908B1A2
:1047000002252EE06A4640F64501584619F047F961
:1047100008B1022525E06A4640F64101584619F0E5
:104720003EF908B102251CE06A4640F642015846AF
:1047300019F035F908B1022513E06A4640F6430145
:10474000584619F02CF908B102250AE06A4640F6ED
:104750004901584619F023F908B1022501E005B9CD
:104760000125761C788CC0F3C500B0423FF6C0AE80
:1047700028467DE70148406870470000440100205A
:104780007047C0F30410072800D90720C0B2704753
:1047900010B518210348FFF74FFDBDE81040012078
:1047A0001AF0A6BD789F00202DE9F04104460D4681
:1047B0001746002C1AD02046FBF7F2FE0646DFF81B
:1047C000308029462046D8F8082090470546D8F87A
:1047D000082060193946904701462846721A03E0BE
:1047E0004318E35C2354401C8242F9D2BDE8F081B7
:1047F000FC0100202DE9F04180460C4615461F467D
:10480000084E3946404672689047206028B13868A3
:10481000726840440021904700E000202860BDE815
:10482000F0810000FC0100202DE9F04F87B0044624
:10483000DDE910588A4693461E464FF00009002DC8
:1048400001D0A5F800906CB1207878B1BAF1000FD2
:104850000ED0002708F0020008F0040108431AD027
:10486000002008E0002007B0BDE8F08F0020FAE744
:104870000020F8E7401C215C0A2903D00D2901D053
:104880000029F7D1215C01B1401C002DEBD04FF085
:10489000FF312980E7E75FEA887001D541F6FF76AE
:1048A000CDF81890CDF8149023E0CDF8109005982D
:1048B00038B3002106AA04ABCDE90221CDE900837B
:1048C000204433465A4651461BF06AF80499721A3E
:1048D00016B239440FB288B1059908440590217881
:1048E0000A290BD00D2909D0205C0A280BD00D28ED
:1048F00009D00598205C08B1002ED6DC059830B1AF
:1049000011E00121D6E70598401C0590F6E7084A1A
:1049100005A9204652689047014625B1002250461D
:1049200010F062FE07B205B12F8005989BE70000EA
:10493000FC0100202DE9F041064688461746002E6E
:1049400021D0002F1FD03046FBF72AFE0446384600
:10495000FBF726FE0546280015D02C440B4A41469D
:104960003046926890470146481903E0621BB25CEA
:104970003255641EA042F9D970182A463946BDE85E
:10498000F04113F0FABEBDE8F0810000FC01002008
:1049900010B5002223290ED103782BB10024012B5E
:1049A00005D0022B05D006E00122027003E004705E
:1049B00001E0047001220378012B04D1202901D1E8
:1049C000022101700122104610BD2DE9F34182B091
:1049D0000746039E334600213A4608461BF064FA18
:1049E00005464FF00008CDF80480681C13F022FD46
:1049F00004465CB104F8058033463A46691C2046FB
:104A00001BF052FA04B02046BDE8F081FEE72DE924
:104A1000F04781460D4614461F46DDF8208012E01F
:104A2000660806FB075A51464846C047002808DD7D
:104A300044F30000C0EB5404A4F101040AEB0705A1
:104A400001E005DA3446002CEAD12046BDE8F087C3
:104A50005046FBE72DE9FF5FDDE910BCDDE912A759
:104A6000DDE90E64149D4FF030085FEA85791ED4AD
:104A70006FB15FEAC5790AD005F00C0959EA0B0954
:104A800005D07F1E03E0A146641C06F8098054454A
:104A900006D2202CF7D303E0A146641C06F8098057
:104AA0005FEAC57903D0BC4201D2202CF4D35FEA7F
:104AB000C5693CD55FEA45590AD44CB1544501D08B
:104AC000BC4205D1641E1CB1BCF1100F00D1641EA4
:104AD000BCF1100F0BD15FEA856908D4202C06D2F7
:104AE000A4464FF07809641C06F80C9019E0BCF15C
:104AF000100F0BD15FEA856908D5202C06D2A44699
:104B00004FF05809641C06F80C900AE0BCF1020F43
:104B100007D1202C05D2A4464FF06209641C06F888
:104B20000C90202C03D2A446641C06F80C80202C88
:104B30001CD2BBF1000F06D0A4464FF02D08641C18
:104B400006F80C8012E05FEA457C06D5A4464FF0DB
:104B50002B08641C06F80C8008E05FEA057C05D58C
:104B6000A4464FF02008641C06F80C80CDE90275BD
:104B7000CDE9006400F087F804B0BDE8F09F2DE9AE
:104B8000F04F8FB0DDE91BABDDE919971D9E189C36
:104B90000025002C01D126F010065FEA465C0DF1DD
:104BA0001C0800D5FCB1B4FBF7FC07FB1C4C0CF057
:104BB000FF0CBCF10A0F02D20CF1300C0AE05FEAE4
:104BC000866E02D54FF0410E01E04FF0610EF444C5
:104BD000ACF10A0CAE466D1C08F80EC0B4FBF7F43D
:104BE0000CB1202DDFD3CDE904ABCDE90085CDE9B3
:104BF00002970696FFF72EFF0FB0BDE8F08F2DE964
:104C0000FF4F8FB0DDE91D1BDDE922A9DDE920564C
:104C1000249F1C98002450EA010201D127F01007BC
:104C20007A050DF11C0802D550EA010218D02A4677
:104C30003346FBF760FBD2B20A2A01D2303206E0DB
:104C4000BB0601D5412300E061231A440A3A2346FA
:104C5000641C08F8032050EA010201D0202CE6D39E
:104C6000CDE904A9CDE90084CDE902B50FA80697E6
:104C70000FC8FFF7EFFE13B0BDE8F08F9A4200D2E5
:104C80008854704770472DE9FF5F0746DDE90EB590
:104C9000DDE910891446A24609F0020009F001017D
:104CA000084313D12E4606E02246641C2020039BB5
:104CB0000199B847761C4645F6D307E02246641CA6
:104CC0006D1E039B1BF805000199B847002DF5D117
:104CD0005FEA897006D409E02246641C2020039B09
:104CE0000199B847A4EB0A004045F5D304B020462B
:104CF000BDE8F09F704700002DE9FF4F89B0804666
:104D000000250A98002801D1DFF8DC844FF0000963
:104D1000D0E0252808D0DDE90A132A466D1CC047DB
:104D20000C98401C0C90C5E0491C0C9100240C9878
:104D300001782B2923D004DC202926D0232904D173
:104D400029E02D2915D030290DD000200028EED1E2
:104D500000260C980078FEF779F910B30CA8FEF73E
:104D60005EF906462BE044F00104401C0C90012043
:104D7000ECE744F00204401C0C900120E6E744F00C
:104D80000404401C0C900120E0E744F00804401C9F
:104D90000C900120DAE744F01004401C0C90012034
:104DA000D4E70C9908782A2809D1169840C816909B
:104DB000002E02DA44F002047642491C0C910027CE
:104DC0000C9801782E2918D144F48064401C0C9072
:104DD0000078FEF73BF920B10CA8FEF720F9074652
:104DE0000BE00C9801782A2907D1169980C91691F1
:104DF000002F00DC0027401C0C900C9801786C29D7
:104E00000AD004DC682913D06A292BD121E0742947
:104E10001AD07A2926D121E044F48074401C0C90E9
:104E200001786C291ED144F40074401C0C9019E0E8
:104E300044F08004401C0C900178682912D144F0A1
:104E40004004401C0C900DE044F48074401C0C9015
:104E500008E044F40074401C0C9003E044F48074B7
:104E6000401C0C900C99087869282DD00EDC622823
:104E70002AD006DC25287BD0502825D0582811D1EF
:104E800022E0632875D064280CD11DE0732871D00E
:104E900004DC6F2818D0702804D115E0752813D0D1
:104EA000782811D0DDE90A132A466D1CC0470C98FA
:104EB000401C0C900C99087800287FF42AAF0B98BE
:104EC00085427DD22A4686E1782813D0582811D011
:104ED000702811D050280FD06F2818D0622818D011
:104EE0000A2224F010040C980078582813D0502877
:104EF00011D012E01022F6E7102244F0100040F426
:104F0000807448785628EED1491C0C91EBE70822B2
:104F1000E9E70222E7E744F02004692803D0642887
:104F200001D024F00C04610501D524F001046928A6
:104F300021D064281FD0562870D0A0056FD51698B0
:104F4000CDE90597CDF80890CDE90764C01D20F0A4
:104F500007000492D0E90012CDE900120830DDE923
:104F60000A1316902A464046FFF749FE0546B1E06F
:104F700025E1B3E0DBE0A00529D51698C01D20F09F
:104F80000701D1E90003083116911946CDE90597CB
:104F9000CDE907640492002901DA012200E0002231
:104FA000002302921A461B1A8A4104DB0A4600219A
:104FB000404261EB0201CDE900012A46404600E093
:104FC00007E1DDE90A13FFF71AFE054682E0E00576
:104FD00014D5169901C91691CDE90376C10F059430
:104FE0000292002800DC4042CDE90001DDE90A130D
:104FF0002A464046FFF7C3FD05466BE0600605D52F
:10500000169810F8041B1690C8B20CE0200607D5BD
:10501000169830F8041B169008B204E015E026E05C
:10502000169901C91691CDE90376C10F0594029234
:10503000002800DC4042CDE90001DDE90A132A46E0
:105040004046FFF79CFD054644E0169901C91691BC
:1050500041680968009103680B98421B0A9841193E
:105060004046FFF749FE0544CDF8209032E0E005C8
:1050700010D5CDE903760292169805942A4602C807
:10508000CDE90019DDE90A1316904046FFF777FDD8
:1050900005461FE0600605D5169810F8041B16900B
:1050A000C8B20AE0200605D5169830F8041B169001
:1050B00088B202E0169901C91691CDE90192CDE9B5
:1050C000037605940090DDE90A132A464046FFF76F
:1050D00056FD05460C98401C0C90EBE60127A007F6
:1050E00006D509E02A46DDE90A136D1C2020C047D9
:1050F00038467F1CB042F5D316982A466D1C10F82E
:10510000041B1690C8B2DDE90A13C047A00706D4F5
:1051100009E02A46DDE90A136D1C2020C047384605
:105120007F1CB042F5D30C98401C0C90C2E6169838
:1051300050F804BB16900FB1394601E04FF0FF3133
:10514000584600E0401C027812B1491E4A1CF9D1B1
:10515000A0EB0B0A600502D5BA4500D3BA46A007FA
:1051600006D512E02A46DDE90A136D1C2020C0474F
:1051700050460AF1010AB042F4D306E0DDE90A1311
:105180002A460BF1010B6D1CC0479BF8000020B1B3
:105190006105F3D57F1E791CF0D1A00706D40AE083
:1051A0002A46DDE90A136D1C2020C04750460AF14B
:1051B000010AB042F4D30C98401C0C907AE62A46BF
:1051C000DDE90A136D1C2520C0470C98401C0C908B
:1051D00070E60B9A521EDDE90A130020C0470DB09D
:1051E0002846BDE8F08F0000854C00082DE9F0430B
:1051F0008FB0182105A8FBF793FA002602960396B4
:1052000004963748816941F400718161816901F434
:1052100000710191816941F004018161816901F0AE
:1052200004010191416941F001014161406900F0CF
:10523000010001904FF00208CDF814804FF40040B7
:10524000079005A8FCF7BAFB03200B900C900127F0
:105250000D970E970BA92348FCF78EF9234C224893
:1052600020606660A6608020E0604FF48079C4F81A
:10527000109000016061A6614000E0612046FCF7EB
:1052800049F804F144051A4828606E60C5F8089092
:105290002E73C5F810802E75AE614FF46020E86162
:1052A0002846FBF747FE2C626562029603970724A7
:1052B000049402A92846FBF7B5FD0297CDF80C80AF
:1052C000049402A92846FBF7ADFD2846FBF738FDFC
:1052D000022208492846FBF7C1FE0FB0BDE8F08363
:1052E000001002400008014008000240D0040020E5
:1052F0000024014084000020144B196821F00101B2
:10530000196013498A6822F001028A608A68D2070C
:10531000FCD10222CA608A6842F001028A601A68DF
:1053200042F001021A601A6842F480021A6003E037
:105330004A6842F002024A600A689207F8D50549B5
:105340000A68026049684160704700000824014013
:10535000000002408400002010B50024002808D07E
:1053600000F019F8B0F5004F03D20C2800D80C203B
:105370000446204610BD0A46491E0A4200D0FEE7F8
:105380000140401A70470844401E4A1E9043114293
:1053900000D0FEE770474A1E114200D0FEE70844E5
:1053A000401E9043704700002DE9F04104460F462F
:1053B00001206086002500260BE01BA1FBF7D8F931
:1053C00010B16D1CADB202E0608E401C6086761C90
:1053D000B6B257F8260010B101780029EDD1208E21
:1053E000A8421ED0A06A002610B113F0AFF8A66242
:1053F000E06A10B113F0AAF8E662E80013F01AF8B8
:10540000A06238B1680013F015F8E06218B1A16A23
:1054100011B102E0FEE7FEE70025690013F0E5F9AF
:105420002586BDE8F08100000A0000002DE9F84F54
:1054300083460F469BF8090000F0070002281DD0A4
:105440009146974200DD3A461646032000EB46009F
:1054500020F003051035DFF8C480DFF8C4A0D8F8C9
:105460000840DAF80000201AD8F804102A188A42F6
:1054700006D2606820F0004060602CE0B946E0E7AA
:105480008D421ED84FF0FF340FE000940022694691
:1054900024480AF0A5F90022694623480AF0A0F939
:1054A000D8F80800DAF80010401AD8F80410284498
:1054B0008842EAD8D8F80840606820F00040606070
:1054C00009E0284612F0B6FF0446200019D06068B3
:1054D00040F0004060603A464946584601F0ACFC56
:1054E0002060606800F04040401C20F08040606018
:1054F000A681A4F80E90002804DA04F11000A06040
:1055000008E0FEE7D8F8080000F11001A160284487
:10551000C8F808002046BDE8F88F00004C010020C4
:10552000D801002087CA00089DF9000810B5084C72
:10553000012020700748FEF759FE20B1A068BDE8A1
:10554000104019F0D9BFA068BDE8104019F0C8BFDD
:10555000BC010020A89F002010B5044694F83E002E
:10556000810707D4A18F29B1A1F57F42FF3A01D06D
:10557000491EA187A28F616B8AB909B182070ED536
:1055800021461348FEF7A9FEFFF7D0FFE16809B1F5
:10559000204688472046BDE8104012F0D7BFA26BD6
:1055A0005242E262002911D0820702D4226B524299
:1055B000E2624210521C62F3410084F83E00E0694E
:1055C000626AE2616062A06AA162606310BD00006D
:1055D000A89F002070B5334E706819F049FE05464B
:1055E000707880F0010070702F48FEF7FFFD0446D0
:1055F00052E00020307094F83E007178C0F38002D1
:105600008A423DD061F3820084F83E00E16A4A1983
:10561000030719D4002917DC002A15DBC00709D1BC
:10562000216939B120468847E1690144E161616A35
:1056300008446062A16809B12046884794F83E009A
:1056400040F0080084F83E00E06A2844E062002848
:1056500016DBA16A884200DDE162A1692046884725
:105660000146206A884204D0216262680AB120683B
:105670009047D4E90A10884202DB2046FFF76CFF0E
:10568000307820B10848FEF7B1FD044604E0214619
:105690000548FEF7C2FD0446002CAAD119F0F3FD1F
:1056A000706070BDBC010020A89F0020F7B582B0DB
:1056B00005460E46049F002D1ED028463146632223
:1056C00015F094FA01900446200012D0206880B1B1
:1056D00028463146642215F089FA0190C2B242B1DF
:1056E00023683946204698470190BDF80400ADF87C
:1056F0001000049805B0F0BD3846FBE770B50446CD
:105700000D466068002802D02946FFF7F7FF22689F
:10571000002A04D029462046BDE87040104770BDDD
:105720002DE9F041054628460FF072FE0446284652
:105730000FF070FE28460FF02DFEAD4EAD4D4FF030
:105740000008072818D001270D287DD00E287CD10D
:10575000686C844279D1A6F120042178491C21701B
:105760002178032900D92770217801296ED00229D8
:105770006DD003296CD130E1A86C844214D1012191
:10578000A86A13F0C2F80121E86A13F010FD0321A2
:10579000E86C0CF00AF9686910F0E0FAE96C6869E5
:1057A000BDE8F04110F0F4B9E86C844261D1E868DA
:1057B00018B113F0A7FDC5F80C800022FF21A86ED8
:1057C00016F0CBFF20460BF0C7FF30B3012839D0CD
:1057D000022850D003284CD10121E86A13F095F833
:1057E0000121A86A13F0E3FC686910F0B7FAA96C0C
:1057F000686910F0CDF9696C686910F0C9F943F275
:10580000390070801FF04CFC0E2279497A481DF057
:10581000B5FABDE8F0411FF085BC686910F09EFA4A
:10582000E96C686910F0B4F9296F686910F0B0F993
:10583000696F686910F0ACF9A96F6869BDE8F0415B
:1058400010F0A6B9686904E02CE012E0BDE0C0E009
:10585000C6E010F083FAE96C686910F099F9686D98
:10586000002806D100224FF4FA71644819F00EFDA9
:105870006865BDE8F081686910F070FAE96C6869E4
:1058800010F086F9E96F686910F082F959488030A4
:105890000168686910F07CF9296B6869BDE8F0411E
:1058A00010F076B9E86C844256D1686D18B119F0E1
:1058B0000DFDC5F85480686910F038FA012806D942
:1058C000686910F04BFAE96C686910F061F9E868F2
:1058D00018B9E86A11F086FDE86000226421A86E1C
:1058E00016F03BFF20460BF037FF88B101281BD094
:1058F000022825D00328BCD141A1E86812F0ECFBB6
:10590000E868BDE8F04100231922092113F08CB8A2
:105910003FA1E86812F0E0FBE868BDE8F041002331
:105920001922092113F080B83EA1E86812F0D4FBD7
:10593000E868BDE8F04100231922092113F074B88A
:105940003EA1E86812F0C8FBE868BDE8F04100231A
:105950001922092113F068B8A86C844289D111F08A
:105960005BFB11F05FFBA6F80080142802D013281F
:1059700009D010E0308A193080B2308264280AD908
:105980006420308207E0308A193880B230823228B1
:1059900001D2322030823780308A322809D04B2819
:1059A0000DD06428A7D1A86CBDE8F04128A112F061
:1059B00093BBA86CBDE8F04126A112F08DBBA86C8A
:1059C000BDE8F04124A112F087BB24A112F084FBB2
:1059D00006E024A112F080FB02E024A112F07CFB7F
:1059E00020787082A86CBDE8F04110F031B9000059
:1059F00094F10020380200200080070839F40108E3
:105A0000E8BF94E59B9EE4B8BBE7958CE99DA200B6
:105A1000E8AEBEE7BDAEE58AA8E58A9BE689ADE7BC
:105A20009FA90000E69FA5E79C8BE9A9B1E58AA89C
:105A3000E69DBFE4BFA1E681AF000000E887AAE5CC
:105A40008AA8E689ADE79FA92EE781AFE5858900A1
:105A5000520000004400000053000000452D424960
:105A60004B4500004D4F544F520000004C4547003D
:105A700070B504460D46204600F030F800B1FEE750
:105A8000284600F013F96168001D08446060204654
:105A900000F030F8204670BD10B50C4600F006F955
:105AA0001034A04201D3012010BD002010BD0838E1
:105AB00070477CB505460C46204600F0F7F86A466C
:105AC00001A91AF0A3FCDDE900322146284609F0BD
:105AD000E7FB7CBD007900F00100704710B500F0D5
